:0300000002027782
:1002770075C7AA75C75575FD5A75C7AA75C7557548
:10028700FDA5787FE4F6D8FD9000007FFF7E03E4AC
:0C029700F0A3DFFCDEFA7581200202DE1D
:10040A0009135646442D5445535400090831323ACB
:06041A0033303A333000DC
:10000300120458C2837FE912036BD2831204401295
:100013000440C2837FEA12036BD283120440C2837B
:100023007FE912036BD283120440120440C2837F20
:10003300EA12036BD283120440C2837FE912036B7B
:10004300D283120440120440C2837FEA12036BD2AC
:1000530083120440C2837FE812036BD283120440ED
:100063007B007A007913E4FF1203F21204401204B6
:10007300401204407B007A007908E4FF1203F21275
:100083000440120440120440E51275F00A8424303F
:10009300F508E51275F00A84E5F02430F509E51C4E
:1000A30075F00A842430F50BE51C75F00A84E5F03D
:1000B3002430F50CE51175F00A842430F50EE511B2
:1000C30075F00A84E5F02430F50F7B007A00790897
:1000D300E4FF1203F21204400511E511643C70A819
:1000E300F511051CE51C643C709EF51C0512E51218
:0800F30064187094F51280906E
:0C0440007F3D7ECC7DF3DDFEDEFCDFFAAC
:01044C00228D
:1000FB00000000301800D031E231EC0D8E2A0800E0
:10010B0008080404CC1CC0100004C0000001080443
:10011B003A271801D222D221F001A228E2231201A0
:10012B00F223F221022010048808C0204404D202DA
:10013B007A22F203523122221231E222E2026223AC
:10014B00F00302301023A80A20223C03340B322385
:10015B00F202322BF20AE221021030232806300F72
:10016B000C0CF0210A24222204081221000C00207E
:10017B0004008026A02AC0225025C026D80458216E
:10018B00A00A0010080608182002C013C003C023E1
:10019B00A002580180024028A02200230006000F75
:1001AB000C0C54218024862400104A28E001000006
:0604580012042102045E03
:100421007F011201BB7F0112043253B3FD43B402B9
:0104310022A8
:06045E001203BA02039034
:1001BB00EF605E24FE603004600302026EA2AF9219
:1001CB0000C2AF75C7AA75C755439720A20092AF5F
:1001DB00E596542060FAA2AF9200C2AF75C7AA751C
:1001EB00C7555396FB8015E596541060FAA2AF9253
:1001FB0000C2AF75C7AA75C755439604A20092AF4C
:10020B00A2AF9200C2AF75C7AA75C7555396FD80B2
:10021B004EA2AF9200C2AF75C7AA75C75543978060
:10022B00A20092AFA2AF9200C2AF75C7AA75C75515
:10023B00439740A20092AFE596540860FAA2AF92A2
:10024B0000C2AF75C7AA75C7555396FBA20092AFF4
:10025B00A2AF9200C2AF75C7AA75C755439602A24B
:0C026B000092AFE5975401640160F82296
:030464008F95224F
:0E043200EF6007147007438E0222538EFD22E6
:10032300E587541064107039AF84AD85EF25E0FF85
:10033300E433FEED54017C002FFFEC3EFE74F12FFD
:10034300FF74FF3EFEEF5401FDEEC313EF1375C7B9
:10035300AA75C755F58475C7AA75C7558D85538783
:01036300EFAA
:010364002276
:1003BA0053B1FE43B20153B1FD43B20253B1F74305
:0F03CA00B20853B1EF43B21053B3FE43B4012254
:06036500C283EF2420FF1B
:10036B00E4FEEEC39408748094805018C281EF545D
:10037B000164017004D2808002C280EFC313FFD2EC
:04038B00810E80DE81
:01038F00224B
:10039000D284D290C2837FE012036B7F0712036B7B
:1003A000D283C2837FE412036B7FB412036BD283C8
:0A03B000C2837FE812036BD28322A0
:0B044D00120365AF0512036BD283227F
:1003F2001203651203D9FF600C12036B740129F911
:08040200E43AFA80EED28322F5
:1002A300020003E493A3F8E493A34003F68001F26E
:1002B30008DFF48029E493A3F85407240CC8C3335C
:1002C300C4540F4420C8834004F456800146F6DF2B
:1002D300E4800B010204081020408090040AE47EAD
:1002E300019360BCA3FF543F30E509541FFEE49320
:1002F300A360010ECF54C025E060A840B8E493A3E7
:10030300FAE493A3F8E493A3C8C582C8CAC583CA11
:10031300F0A3C8C582C8CAC583CADFE9DEE780BEC9
:0104200000DB
:1003D900BB010689828A83E0225002E722BBFE0222
:0903E900E32289828A83E4932255
:00000001FF
